:020000002100DD
:1001000012012F748512011B90016B12015D749214
:1001100012011B90017212015D2119C2B28004D23A
:10012000B28000F590D2B3C2B3D2B312016222748E
:100130000112011B120162743812011B1201627458
:100140000C12011B120162740612011B12016222C1
:10015000243012011F1201622212011FA3E49370C6
:10016000F8227E147FFADFFEDEFA22474544554E20
:100170004700414E474B4154414E20323031380008
:00000001FF
